:100000000C942A000C9455010C943C000C943C0078
:100010000C943C000C943C000C943C000C943C0070
:100020000C943C000C943C000C943C000C943C0060
:100030000C943C000C943C000C943C000C943C0050
:100040000C943C000C943C000C943C000C943C0040
:100050000C943C0011241FBECFE5D8E0DEBFCDBF1D
:1000600020E0A0E6B0E001C01D92A237B207E1F7A0
:100070000E9424020C9418070C94000061E482E0B2
:100080000E94B90161E480E00E94B90161E481E06D
:100090000E94B90162E482E00E94B90162E480E05A
:1000A0000E94B90162E481E00E94B90164E482E047
:1000B0000E94B201109268001092670080E00895DB
:1000C00080916000811187C080916800813069F162
:1000D00008F45AC0823009F0DEC061E480E00E947A
:1000E000CE0161E481E00E94CE0161E482E00E94E1
:1000F000C90162E480E00E94CE0162E481E00E94D6
:10010000CE0162E482E00E94C90188E893E10E9486
:10011000BA03809160008111C0C081E080936800C3
:1001200082E08093670080E0089561E480E00E94AF
:10013000CE0161E482E00E94CE0162E482E00E948E
:10014000C90162E480E00E94CE0161E481E00E9486
:10015000D30162E481E00E94CE01809160008111B0
:100160009EC080916700823039F41092680081E06F
:100170008093670080E0089582E08093680081E0CA
:100180008093670080E0089561E482E00E94CE01E0
:1001900061E481E00E94CE0161E480E00E94C90137
:1001A00062E482E00E94C90162E481E00E94CE0123
:1001B00062E480E00E94CE0188E893E10E94BA03E5
:1001C0008091600081116DC081E080936800109281
:1001D000670080E0089580916800813069F108F43B
:1001E00053C0823009F05FC081E08093680082E0F4
:1001F0008093670061E480E00E94CE0161E481E0C9
:100200000E94CE0161E482E00E94C90162E480E0C4
:100210000E94C90162E481E00E94CE0162E482E0B2
:100220000E94CE0188E893E10E94BA031092600018
:100230001092610080E0089580916700823031F46F
:100240001092680081E08093670006C082E080938E
:10025000680081E08093670061E480E00E94CE0145
:1002600061E482E00E94CE0162E480E00E94CE015F
:1002700062E482E00E94CE0122E441E061E481E098
:100280000E94F40180E0089582E08093680010925B
:10029000670080E0089580E0089580E0089580E0A0
:1002A000089580E0089581E008951F920F920FB69F
:1002B0000F9211242F933F934F935F936F937F93EC
:1002C0008F939F93AF93BF93EF93FF9380916100C0
:1002D000811137C081E080936000809361000E94AB
:1002E000880480916800813099F0E0F0823049F50F
:1002F00062E480E00E94C90162E481E00E94CE01D4
:1003000062E482E00E94CE0182E08093680019C01E
:100310000E941F0262E480E00E94CE0181E080938F
:1003200068000FC062E482E00E94CE0162E481E0D6
:100330000E94CE0162E480E00E94CE0181E08093C1
:100340006800FF91EF91BF91AF919F918F917F9145
:100350006F915F914F913F912F910F900FBE0F9032
:100360001F90189540E00E9429020E94A80380E097
:100370000895CF93DF93C82FD62F41E00E94290222
:1003800040E06D2F8C2F0E94C60280E0DF91CF915C
:10039000089541E00E94C60280E0089540E00E9476
:1003A000C60280E008950F931F93CF93DF93082F29
:1003B000162F10926200C0E0D0E00DC08091620064
:1003C000811108C0612F802F0E94630384EF91E0A8
:1003D0000E94BA032196CA30D10584F380E0DF91F0
:1003E000CF911F910F910895EF92FF920F931F935A
:1003F000CF93DF93E82EF62E042F122F1092620077
:10040000C0E0D0E011C08091620081110CC06F2D5E
:100410008E2D0E946303612F802F0E94630384EF5F
:1004200091E00E94BA032196CA30D10564F380E0BE
:10043000DF91CF911F910F91FF90EF90089581E090
:100440008093620080E008950E943E000E94600058
:10045000FDCF623469F118F4613441F08DC063342A
:1004600009F448C0643409F466C086C041110FC065
:100470004AB321E030E0B90102C0660F771F8A95C8
:10048000E2F7CB01809584238ABB80E00895413058
:1004900009F074C04AB321E030E0B90102C0660F30
:1004A000771F8A95E2F7CB01842B8ABB80E0089501
:1004B00041110FC047B321E030E0B90102C0660F1F
:1004C000771F8A95E2F7CB018095842387BB80E074
:1004D0000895413009F054C047B321E030E0B9013C
:1004E00002C0660F771F8A95E2F7CB01842B87BB8A
:1004F00080E0089541110FC044B321E030E0B9011C
:1005000002C0660F771F8A95E2F7CB01809584239E
:1005100084BB80E008954130A9F544B321E030E088
:10052000B90102C0660F771F8A95E2F7CB01842BD1
:1005300084BB80E0089541110FC041B321E030E059
:10054000B90102C0660F771F8A95E2F7CB0180954B
:10055000842381BB80E008954130B1F441B321E0B0
:1005600030E0B90102C0660F771F8A95E2F7CB0130
:10057000842B81BB80E0089581E0089581E0089597
:1005800081E0089581E0089581E00895623469F181
:1005900018F4613441F08DC0633409F448C0643408
:1005A00009F466C086C041110FC04BB321E030E0B2
:1005B000B90102C0660F771F8A95E2F7CB018095DB
:1005C00084238BBB80E00895413009F074C04BB3A5
:1005D00021E030E0B90102C0660F771F8A95E2F78B
:1005E000CB01842B8BBB80E0089541110FC048B331
:1005F00021E030E0B90102C0660F771F8A95E2F76B
:10060000CB018095842388BB80E00895413009F0B8
:1006100054C048B321E030E0B90102C0660F771F33
:100620008A95E2F7CB01842B88BB80E008954111C5
:100630000FC045B321E030E0B90102C0660F771F5B
:100640008A95E2F7CB018095842385BB80E00895ED
:100650004130A9F545B321E030E0B90102C0660F91
:10066000771F8A95E2F7CB01842B85BB80E0089544
:1006700041110FC042B321E030E0B90102C0660F62
:10068000771F8A95E2F7CB018095842382BB80E0B7
:1006900008954130B1F442B321E030E0B90102C025
:1006A000660F771F8A95E2F7CB01842B82BB80E02F
:1006B000089581E0089581E0089581E0089581E042
:1006C000089581E008956234B9F018F4613431F08E
:1006D0003DC06334F9F0643459F138C04BB321E0C4
:1006E00030E0B90102C0660F771F8A95E2F7CB01AF
:1006F00084278BBB80E0089548B321E030E0B90146
:1007000002C0660F771F8A95E2F7CB01842788BB6A
:1007100080E0089545B321E030E0B90102C0660FE2
:10072000771F8A95E2F7CB01842785BB80E0089587
:1007300042B321E030E0B90102C0660F771F8A950D
:10074000E2F7CB01842782BB80E0089581E0089521
:100750008FB780688FBF85B7816085BF85B782609E
:1007600085BF8BB780648BBF80E0089513BE12BE37
:1007700080E008958F929F92AF92BF92CF92DF92C6
:10078000EF92FF92CF93DF93EC010E94B6038DEBC3
:1007900097E3A6E8B8E380936D0090936E00A09372
:1007A0006F00B09370008DEB97E3A6E8BCE38093F5
:1007B000690090936A00A0936B00B0936C00BE0137
:1007C00080E090E00E94B8052FE632E143E85AE36A
:1007D0000E94AB066B017C012DEB37E346E85CE33E
:1007E0000E9412058823A4F4A70196016DEB77E31C
:1007F00086E89CE30E948E042DEB37E346E858E33D
:100800000E9417050E9489056093710062BF3FC076
:100810002DEB37E346E85CE3C701B6010E94120501
:10082000811102C012BE33C02DEB37E346E85CE312
:10083000C701B6010E9417050E94FB040E948905AA
:100840004B015C0170936600609365002DEB37E30C
:1008500046E858E3C701B6010E9417056B017C0109
:10086000B40180E090E00E94B8059B01AC01C70193
:10087000B6010E9417059B01AC0160E070E0CB015E
:100880000E948E040E9489056093710062BF83B745
:10089000816083BF83B78D7F83BF83B7846083BF4D
:1008A0008091650090916600892BB1F408B600FE36
:1008B000FDCF88B7816088BF1EC008B600FEFDCF9F
:1008C00088B7816088BF8091630090916400019631
:1008D00090936400809363002091630030916400E2
:1008E00080916500909166002817390730F31092C7
:1008F00064001092630013BE80E0DF91CF91FF90FF
:10090000EF90DF90CF90BF90AF909F908F90089521
:10091000109266001092650080E008955058BB2741
:10092000AA270E94A6040C9459060E944B0638F090
:100930000E94520620F039F49F3F19F426F40C94DB
:1009400048060EF4E095E7FB0C941906E92F0E9487
:100950006A0658F3BA17620773078407950720F0F1
:1009600079F4A6F50C94A4060EF4E0950B2EBA2F9C
:10097000A02D0B01B90190010C01CA01A0011124A5
:10098000FF27591B99F0593F50F4503E68F11A1651
:10099000F040A22F232F342F4427585FF3CF4695E2
:1009A00037952795A795F0405395C9F77EF41F1604
:1009B000BA0B620B730B840BBAF09150A1F0FF0FCE
:1009C000BB1F661F771F881FC2F70EC0BA0F621FBA
:1009D000731F841F48F4879577956795B795F795AA
:1009E0009E3F08F0B0CF9395880F08F09927EE0F3F
:1009F0009795879508950E948C0690F09F3748F44C
:100A0000911116F40C94A50660E070E080E89FE375
:100A1000089526F01B16611D711D811D0C941F0683
:100A20000C943A060E94F50508F481E008950E94AE
:100A30002B050C9459060E94520658F00E944B0652
:100A400040F029F45F3F29F00C94190651110C94E1
:100A5000A5060C9448060E946A0668F39923B1F330
:100A6000552391F3951B550BBB27AA2762177307D4
:100A7000840738F09F5F5F4F220F331F441FAA1F68
:100A8000A9F335D00E2E3AF0E0E832D09150504024
:100A9000E695001CCAF72BD0FE2F29D0660F771FD2
:100AA000881FBB1F261737074807AB07B0E809F0B8
:100AB000BB0B802DBF01FF2793585F4F3AF09E3F3D
:100AC000510578F00C9419060C94A5065F3FE4F3E9
:100AD000983ED4F3869577956795B795F7959F5F80
:100AE000C9F7880F911D9695879597F90895E1E0CC
:100AF000660F771F881FBB1F621773078407BA072B
:100B000020F0621B730B840BBA0BEE1F88F7E09585
:100B100008950E94720688F09F5798F0B92F992780
:100B2000B751B0F0E1F0660F771F881F991F1AF0D8
:100B3000BA95C9F714C0B13091F00E94A406B1E093
:100B400008950C94A406672F782F8827B85F39F092
:100B5000B93FCCF3869577956795B395D9F73EF471
:100B600090958095709561957F4F8F4F9F4F089519
:100B7000E89409C097FB3EF4909580957095619537
:100B80007F4F8F4F9F4F9923A9F0F92F96E9BB27ED
:100B90009395F695879577956795B795F111F8CF69
:100BA000FAF4BB0F11F460FF1BC06F5F7F4F8F4FD4
:100BB0009F4F16C0882311F096E911C0772321F0CA
:100BC0009EE8872F762F05C0662371F096E8862F62
:100BD00070E060E02AF09A95660F771F881FDAF7B9
:100BE000880F9695879597F90895990F0008550FE6
:100BF000AA0BE0E8FEEF16161706E807F907C0F0A3
:100C000012161306E407F50798F0621B730B840BAA
:100C1000950B39F40A2661F0232B242B252B21F484
:100C200008950A2609F4A140A6958FEF811D811D24
:100C3000089597F99F6780E870E060E00895882341
:100C400071F4772321F09850872B762F07C0662305
:100C500011F499270DC09051862B70E060E02AF0C6
:100C60009A95660F771F881FDAF7880F96958795F4
:100C700097F908959F3F31F0915020F4879577952B
:100C80006795B795880F911D9695879597F9089563
:100C90009FEF80EC089500240A9416161706180694
:100CA0000906089500240A94121613061406050670
:100CB0000895092E0394000C11F4882352F0BB0F01
:100CC00040F4BF2B11F460FF04C06F5F7F4F8F4F64
:100CD0009F4F089557FD9058440F551F59F05F3F9F
:100CE00071F04795880F97FB991F61F09F3F79F04E
:100CF00087950895121613061406551FF2CF4695D0
:100D0000F1DF08C0161617061806991FF1CF869551
:100D100071056105089408950E947206A0F0BEE76F
:100D2000B91788F4BB279F3860F41616B11D672FDA
:100D3000782F8827985FF7CF869577956795B11DAF
:100D400093959639C8F30895E894BB2766277727CB
:100D5000CB0197F908950E94BE060C9459060E9493
:100D60004B0638F00E94520620F0952311F00C94A7
:100D700019060C94480611240C94A5060E946A06D4
:100D800070F3959FC1F3950F50E0551F629FF001DE
:100D9000729FBB27F00DB11D639FAA27F00DB11DF7
:100DA000AA1F649F6627B00DA11D661F829F222780
:100DB000B00DA11D621F739FB00DA11D621F839F07
:100DC000A00D611D221F749F3327A00D611D231FDD
:100DD000849F600D211D822F762F6A2F11249F572B
:100DE00050409AF0F1F088234AF0EE0FFF1FBB1F2E
:100DF000661F771F881F91505040A9F79E3F5105ED
:100E000080F00C9419060C94A5065F3FE4F3983E1D
:100E1000D4F3869577956795B795F795E7959F5F96
:100E2000C1F7FE2B880F911D9695879597F9089528
:040E3000F894FFCF64
:00000001FF
